:040000006CEF00F0B1
:08000800046ED8CF05F0E0CF33
:1000100006F00001E9CF0CF0EACF07F0E1CF08F0DD
:10002000E2CF09F0D9CF0AF0DACF0BF0F3CF12F01C
:10003000F4CF13F0FACF14F000C00EF001C00FF0AF
:1000400002C010F003C011F0F2A82AEF00F0F2B2E3
:1000500051EF00F0F0A630EF00F0F0B056EF00F0F6
:100060000EC000F00FC001F010C002F011C003F08C
:100070000CC0E9FF07C0EAFF078E08C0E1FF09C016
:10008000E2FF0AC0D9FF0BC0DAFF12C0F3FF13C0B2
:10009000F4FF14C0FAFF045006C0E0FF05C0D8FF0B
:1000A0001000010E166EF29230EF00F0F09030EF7B
:1000B00000F0EA6A180EE96EEF500DE0060E016ED0
:1000C000006A002EFED7012EFBD77B0E006E002E9D
:1000D000FED7EF2EF3D7000CF86AD09E078EEA6A9F
:1000E000E96A810EAF6EA60EAC6E900EAB6E166A0C
:1000F000C180C182C184C196C180C182C184C196C0
:10010000C19CC29CC29EC19EC2809698C69A949A77
:1001100094889496010EC66E000EC76ED190800E24
:10012000D56ECD6A000ECA6E000ECB6EF288F086D8
:10013000C00EF212956A210E8C6E140E176EFA0E16
:10014000186EB7DF172EFBD7162C17D0956A110E35
:100150008C6E040E176EFA0E186EABDF172EFBD7DF
:10016000956A090E8C6E040E176EFA0E186EA1DFDA
:10017000172EFBD7956A210E8C6E140E176EFA0E91
:10018000186E97DF172EFBD7938E81AE28D0956A15
:10019000110E8C6E040E176EFA0E186E8ADF172E73
:1001A000FBD7956A0C0E8C6E040E176EFA0E186E45
:1001B00080DF172EFBD7956A0A0E8C6E040E176E21
:1001C000FA0E186E76DF172EFBD7956A210E8C6E0D
:1001D000040E176EFA0E186E6CDF172EFBD7ADD714
:0201E00003001A
:020000040030CA
:0E00000000220D0E000181000FC00FE00F4026
:00000001FF
;PIC18F452
;CRC=025C  CREATED="21-janv.-20 18:01"
