:04000000D5EF00F048
:08000800046ED8CF05F0E0CF33
:1000100006F00001E9CF0CF0EACF07F0E1CF08F0DD
:10002000E2CF09F0D9CF0AF0DACF0BF0F3CF12F01C
:10003000F4CF13F0FACF14F000C00EF001C00FF0AF
:1000400002C010F003C011F09DA02AEF00F09EB096
:100050008FEF00F0F2A830EF00F0F2B2D2EF00F034
:100060000EC000F00FC001F010C002F011C003F08C
:100070000CC0E9FF07C0EAFF078E08C0E1FF09C016
:10008000E2FF0AC0D9FF0BC0DAFF12C0F3FF13C0B2
:10009000F4FF14C0FAFF045006C0E0FF05C0D8FF0B
:1000A0001000006A016A026A036A2B6A2C6A2D6AD0
:1000B0002E6A2A502910281027102CE0200E2F6EAF
:1000C000D89023362436253626362B362C362D3638
:1000D0002E362A502E5C08E129502D5C05E128506F
:1000E0002C5C02E127502B5C0FE327502B5E28503D
:1000F000D8A0283C2C5E2950D8A0293C2D5E2A503F
:10010000D8A02A3C2E5ED88000360136023603364F
:100110002F2ED6D7EA6A2B0EE96EC7EF00F01E2C01
:100120003ED01F523CE120523AE1215238E10B0E01
:10013000CF6EDC0ECE6E010E1626D8B0172AD8B4BC
:10014000182AD8B4192A195207E1185205E1175292
:1001500003E1165009080CE2196A186A176A166A50
:10016000010E1A26D8B01B2AD8B41C2AD8B41D2ACE
:100170001DC026F01CC025F01BC024F01AC023F0BF
:100180002A6A296A010E286EF40E276E8AD7EFCFED
:100190001AF0ECCF1BF0ECCF1CF0ECCF1DF09E90D2
:1001A00030EF00F0F29230EF00F0F86AD09E078E48
:1001B000EA6AE96A810EAF6EA60EAC6E900EAB6E67
:1001C000196A186A176A166A1D6A1C6A1B6A1A6A13
:1001D000216A206A1F6A1E6A010E226EC180C182D6
:1001E000C184C196C180C182C184C196C19CC29C98
:1001F000C29EC19EC2809698C69A949A94889496FC
:10020000010EC66E000EC76ED190800ED56EB50E73
:10021000CD6E000ECA6E000ECB6EB16A9D80F28864
:0E022000C00EF212946A800E8B6EFFD70300A0
:020000040030CA
:0E00000000220D0E000181000FC00FE00F4026
:00000001FF
;PIC18F452
;CRC=CAA1  CREATED="10-Mar-20 18:44"
