:04000000E4EF02F037
:08000800046ED8CF05F0E0CF33
:1000100006F00001E9CF0CF0EACF07F0E1CF08F0DD
:10002000E2CF09F0D9CF0AF0DACF0BF0F3CF12F01C
:10003000F4CF13F0FACF14F000C00EF001C00FF0AF
:1000400002C010F003C011F0F2A82AEF00F0F2B2E3
:100050004EEF01F00EC000F00FC001F010C002F032
:1000600011C003F00CC0E9FF07C0EAFF078E08C00B
:10007000E1FF09C0E2FF0AC0D9FF0BC0DAFF12C0DE
:10008000F3FF13C0F4FF14C0FAFF045006C0E0FFF2
:1000900005C0D8FF10000A0D20434F4445205641AB
:1000A0004C494445200A0D000A0D20434F44452089
:1000B0004E4F4E2056414C49444520200A0D000029
:1000C000226A236A010E246EDA6AD96A276A1A0E36
:1000D000266EEA6A1E0EE96E27C0E2FF26C0E1FF27
:1000E00024C025F0D890E550EE02F3502222F450BF
:1000F0002322252EF7D722C0DEFF23C022F0236A59
:10010000D8B0232A262AD8B4272A242A245005081E
:10011000E0E1000C006A016A026A036A2E6A2F6A33
:10012000306A316A2D502C102B102A102CE0200E32
:10013000326ED89026362736283629362E362F3678
:10014000303631362D50315C08E12C50305C05E101
:100150002B502F5C02E12A502E5C0FE32A502E5EBA
:100160002B50D8A02B3C2F5E2C50D8A02C3C305EBE
:100170002D50D8A02D3C315ED88000360136023695
:100180000336322ED6D7EA6A2E0EE96E000CE950FD
:100190001E6E3B0E256E9A0E246ECA0E236E226AC8
:1001A0000A0E206E1DC029F01CC028F01BC027F0CD
:1001B0001AC026F025C02DF024C02CF023C02BF04F
:1001C00022C02AF0A7DF0150EFCF1AF0ECCF1BF0CE
:1001D000ECCF1CF0ECCF1DF000520FE12050010AD3
:1001E0000CE01E500BE00F0B205C01E00DE21EBE88
:1001F0000BD01EBC03D0200E02D01E6A300E00268B
:1002000000509EA8FED7AD6E25C029F024C028F06E
:1002100023C027F022C026F02D6A2C6A2B6A0A0E12
:100220002A6E78DF03C025F002C024F001C023F05D
:1002300000C022F0202EB6D7BFEF02F00900F6CFA3
:100240001BF0F7CF1CF0F5509EA8FED7AD6E1BC07B
:10025000F6FF1CC0F7FF1A2EF1D7C6EF02F0090017
:10026000F5520DE0F6CF1AF0F7CF1BF0F5509EA82F
:10027000FED7AD6E1AC0F6FF1BC0F7FFF0D7000C1B
:10028000960EF66E000EF76EEADFD1EF02F0A80EC2
:10029000F66E000EF76EE3DFD3EF02F0F298956A88
:1002A000010E8C6E938881A81ED0310E9EA8FED7B9
:1002B000AD6E1D6A1C6A1B6A0A0E1A6E19C021F007
:1002C00018C020F017C01FF016C01EF0F9DE010E96
:1002D0000024166E000E0120176E000E0220186E0C
:1002E000000E0320196E938A81AA1ED0340E9EA898
:1002F000FED7AD6E1D6A1C6A1B6A0A0E1A6E19C003
:1003000021F018C020F017C01FF016C01EF0D8DE74
:10031000040E0024166E000E0120176E000E02203F
:10032000186E000E0320196E938C81AC1ED0370E10
:100330009EA8FED7AD6E1D6A1C6A1B6A0A0E1A6E55
:1003400019C021F018C020F017C01FF016C01EF011
:10035000B7DE070E0024166E000E0120176E000E89
:100360000220186E000E0320196E938E81AE04D009
:100370002A0E9EA8FED7AD6E956A020E8C6E9388EB
:1003800081A81ED0320E9EA8FED7AD6E1D6A1C6AD3
:100390001B6A0A0E1A6E19C021F018C020F017C08F
:1003A0001FF016C01EF08CDE020E0024166E000E2A
:1003B0000120176E000E0220186E000E0320196E29
:1003C000938A81AA1ED0350E9EA8FED7AD6E1D6AF7
:1003D0001C6A1B6A0A0E1A6E19C021F018C020F0A0
:1003E00017C01FF016C01EF06BDE050E0024166E3F
:1003F000000E0120176E000E0220186E000E032062
:10040000196E938C81AC1ED0380E9EA8FED7AD6EAF
:100410001D6A1C6A1B6A0A0E1A6E19C021F018C0E8
:1004200020F017C01FF016C01EF04ADE080E002490
:10043000166E000E0120176E000E0220186E000EC0
:100440000320196E938E81AE1AD0300E9EA8FED76F
:10045000AD6E1D6A1C6A1B6A0A0E1A6E19C021F065
:1004600018C020F017C01FF016C01EF029DE03C010
:1004700019F002C018F001C017F000C016F0956A1C
:10048000040E8C6E938881A81ED0330E9EA8FED7D2
:10049000AD6E1D6A1C6A1B6A0A0E1A6E19C021F025
:1004A00018C020F017C01FF016C01EF009DE030EA2
:1004B0000024166E000E0120176E000E0220186E2A
:1004C000000E0320196E938A81AA1ED0360E9EA8B4
:1004D000FED7AD6E1D6A1C6A1B6A0A0E1A6E19C021
:1004E00021F018C020F017C01FF016C01EF0E8DD84
:1004F000060E0024166E000E0120176E000E02205C
:10050000186E000E0320196E938C81AC1ED0390E2C
:100510009EA8FED7AD6E1D6A1C6A1B6A0A0E1A6E73
:1005200019C021F018C020F017C01FF016C01EF02F
:10053000C7DD090E0024166E000E0120176E000E96
:100540000220186E000E0320196E938E81AE2FD0FC
:100550000A0E9EA8FED7AD6E0D0E9EA8FED7AD6EFC
:100560005B0E9EA8FED7AD6E410EE96E19C01DF060
:1005700018C01CF017C01BF016C01AF008D6C20E27
:10058000F66E050EF76E040E1A6E58D616508008D9
:1005900009E11750060806E1185204E1195202E178
:1005A0006FD601D074D6196A186A176A166A956AE6
:1005B000070E8C6EF288F2922AEF00F00A0D5B258E
:1005C0006C755D200A0D0000F86AD09E078EEA6AFD
:1005D000E96A810EAF6EA60EAC6E900EAB6E196A14
:1005E000186A176A166AC180C182C184C196C18027
:1005F000C182C184C196C19CC29CC29EC19EC28060
:100600009698C69A949A94889496010EC66E000E97
:10061000C76ED190800ED56ECD6A000ECA6E000EE8
:10062000CB6EF288C00EF212956A070E8C6EFFD761
:020630000300C5
:020000040030CA
:0E00000000220D0E000181000FC00FE00F4026
:00000001FF
;PIC18F452
;CRC=48B6  CREATED="11-févr.-20 18:53"
