:1000000002EF00F0F86AD09EEA6AE96A810EAF6EEC
:10001000A60EAC6E900EAB6EC180C182C184C1963B
:10002000C180C182C184C196C19CC29CC29EC19E36
:10003000C2809698C69A949A94889496010EC66E39
:10004000000EC76ED190800ED56ECD6A000ECA6EBE
:10005000000ECB6E938281A206D0938C81BC03D01C
:10006000956A010E8C6E938281B205D0938481B41F
:1000700002D0956A8C6A938481A406D0938E81BE47
:1000800003D0956A030E8C6E938081A00AD0938C66
:1000900081BC07D0938C81BC04D0956A010E8C6E14
:1000A000F9D7938681A60AD0938E81BE07D0938E0E
:1000B00081BE04D0956A030E8C6EF9D7CBD70300AE
:020000040030CA
:0E00000000220D0E000181000FC00FE00F4026
:00000001FF
;PIC18F452
;CRC=A1DE  CREATED="28-janv.-20 17:25"
