:1000000073EF04F055EF02F0046ED8CF05F0E0CFA7
:1000100006F00001E9CF0CF0EACF07F0E1CF08F0DD
:10002000E2CF09F0D9CF0AF0DACF0BF0F3CF12F01C
:10003000F4CF13F0FACF14F000C00EF001C00FF0AF
:1000400002C010F003C011F09DA02AEF00F09EB096
:1000500062EF00F0F2A830EF00F0F2B2DAEF02F057
:100060000EC000F00FC001F010C002F011C003F08C
:100070000CC0E9FF07C0EAFF078E08C0E1FF09C016
:10008000E2FF0AC0D9FF0BC0DAFF12C0F3FF13C0B2
:10009000F4FF14C0FAFF045006C0E0FF05C0D8FF0B
:1000A00010000900F5520DE0F6CF41F0F7CF42F015
:1000B000F5509EA8FED7AD6E41C0F6FF42C0F7FFD7
:1000C000F0D7000C0B0ECF6EDC0ECE6E332A335001
:1000D0000A080CE1342A336A362AD8B4372A385051
:1000E000D8B4390638063A2AD8B43B2A34503C08EA
:1000F00002E1352A346A1E5206E11F5204E1205201
:1001000002E1215210E033500A080DE1FF0E1E26D5
:10011000D8A01F26D8A02026D8A021268C0EF66EA7
:10012000010EF76EBEDF225206E1235204E1245293
:1001300002E1255208E0FF0E2226D8A02326D8A0EF
:100140002426D8A02526265206E1275204E128526B
:1001500002E1295208E0FF0E2626D8A02726D8A0C3
:100160002826D8A029262A5206E12B5204E12C5237
:1001700002E12D5208E0FF0E2A26D8A02B26D8A097
:100180002C26D8A02D269E9030EF00F02321200DA4
:100190000A00446A456A010E466EDA6AD96A496AFB
:1001A0003C0E486EEA6A400EE96E49C0E2FF48C064
:1001B000E1FF46C047F0D890E550EE02F3504422EC
:1001C000F4504522472EF7D744C0DEFF45C044F027
:1001D000456AD8B0452A482AD8B4492A462A465002
:1001E0000508E0E1000C940EF66E080EF76E59DF7C
:1001F0001D6A1C6A060E1B6E800E1A6EE3EF01F07C
:100200000900F6CF42F0F7CF43F0F5509EA8FED795
:10021000AD6E42C0F6FF43C0F7FF412EF1D7B1EFFC
:1002200001F0006A016A026A036A556A566A576AEF
:10023000586A54505310521051102CE0200E596E31
:10024000D8904D364E364F36503655365636573690
:1002500058365450585C08E15350575C05E15250F1
:10026000565C02E15150555C0FE35150555E5250BF
:10027000D8A0523C565E5350D8A0533C575E5450C1
:10028000D8A0543C585ED88000360136023603367A
:10029000592ED6D7EA6A550EE96E000CE950456E24
:1002A0003B0E4C6E9A0E4B6ECA0E4A6E496A0A0E8F
:1002B000476E44C050F043C04FF042C04EF041C0C2
:1002C0004DF04CC054F04BC053F04AC052F049C0FE
:1002D00051F0A7DF0150EFCF41F0ECCF42F0ECCF6F
:1002E00043F0ECCF44F000520FE14750010A0CE01C
:1002F00045500BE00F0B475C01E00DE245BE0BD013
:1003000045BC03D0200E02D0456A300E00260050B6
:100310009EA8FED7AD6E4CC050F04BC04FF04AC007
:100320004EF049C04DF0546A536A526A0A0E516E3B
:1003300078DF03C04CF002C04BF001C04AF000C0AF
:1003400049F0472EB6D7BCEF01F0196A186A176A50
:1003500040C016F0A40EF66E080EF76E170E416E32
:100360004FD7410EE96E19C044F018C043F017C0D2
:1003700042F016C041F092D7200E9EA8FED7AD6E77
:100380005D0E9EA8FED7AD6E09EF02F0C20EF66EAE
:10039000080EF76E86DE2FEF02F07BEF02F0A1EF82
:1003A00002F0C7EF02F0010E2E6ED4EF02F02F50D4
:1003B000300809E130501B0806E131500F0803E115
:1003C000325201E110D732520AE1315208E1305085
:1003D00002081FE2FF0A03E12F50E7081AE2325237
:1003E00018E1315216E13050040813E303E12F50B5
:1003F0004B080FE3E80E2F5C3C6E030E30583D6E49
:10040000000E31583E6E000E32583F6E3CC040F038
:100410009CD72F50B00823E13050AD0820E1312C9B
:100420001ED032521CE132521AE13150010817E35A
:1004300007E13050D40813E303E12F50BF080FE366
:10044000B00E2F5C3C6EAD0E30583D6E010E315833
:100450003E6E000E32583F6E3CC040F097D732528D
:100460000AE1315208E1305006081FE2FF0A03E1B9
:100470002F50CF081AE2325218E1315216E13050B3
:10048000080813E303E12F5033080FE3D00E2F5C6D
:100490003C6E070E30583D6E000E31583E6E000E19
:1004A00032583F6E3CC040F0ADD532520AE1315275
:1004B00008E1305007081FE2FF0A03E12F5033081C
:1004C0001AE2325218E1315216E13050080813E3B3
:1004D00003E12F5097080FE3340E2F5C3C6E080E9B
:1004E00030583D6E000E31583E6E000E32583F6E51
:1004F0003CC040F052D732520AE1315208E130504C
:1005000074081FE2FF0A03E12F502F081AE232524B
:1005100018E1315216E13050750813E303E12F5012
:10052000E3080FE3300E2F5C3C6E750E30583D6EC5
:10053000000E31583E6E000E32583F6E3CC040F007
:100540002ED732520AE1315208E130500B081FE237
:10055000FF0A03E12F501B081AE2325218E1315210
:1005600016E130500C0813E303E12F507F080FE32E
:10057000300E2F5C3C6E750E30583D6E000E3158BB
:100580003E6E000E32583F6E3CC040F00AD7165007
:100590002F5C0AE11750305C07E11850315C04E130
:1005A0001950325C01E1FFD6326A316A306A2F6A33
:1005B00041EF04F095908C8095928C9295948C9458
:1005C000958683A61ED0310E9EA8FED7AD6E3F6ADB
:1005D0003E6A3D6A0A0E3C6E32C043F031C042F0C2
:1005E00030C041F02FC040F0D4DD010E00242F6E4A
:1005F000000E0120306E000E0220316E000E03202E
:10060000326E958883A81ED0340E9EA8FED7AD6E9C
:100610003F6A3E6A3D6A0A0E3C6E32C043F031C00A
:1006200042F030C041F02FC040F0B3DD040E002492
:100630002F6E000E0120306E000E0220316E000E73
:100640000320326E958A83AA1ED0370E9EA8FED74D
:10065000AD6E3F6A3E6A3D6A0A0E3C6E32C043F0A0
:1006600031C042F030C041F02FC040F092DD070EA3
:1006700000242F6E000E0120306E000E0220316E1D
:10068000000E0320326E958C83AC04D02A0E9EA8F7
:10069000FED7AD6E95908C9095928C8295948C94AB
:1006A000958683A61ED0320E9EA8FED7AD6E3F6AF9
:1006B0003E6A3D6A0A0E3C6E32C043F031C042F0E1
:1006C00030C041F02FC040F064DD020E00242F6ED8
:1006D000000E0120306E000E0220316E000E03204D
:1006E000326E958883A81ED0350E9EA8FED7AD6EBB
:1006F0003F6A3E6A3D6A0A0E3C6E32C043F031C02A
:1007000042F030C041F02FC040F043DD050E002420
:100710002F6E000E0120306E000E0220316E000E92
:100720000320326E958A83AA1ED0380E9EA8FED76B
:10073000AD6E3F6A3E6A3D6A0A0E3C6E32C043F0BF
:1007400031C042F030C041F02FC040F022DD080E31
:1007500000242F6E000E0120306E000E0220316E3C
:10076000000E0320326E958C83AC1AD0300E9EA8FA
:10077000FED7AD6E3F6A3E6A3D6A0A0E3C6E32C0DD
:1007800043F031C042F030C041F02FC040F001DDF5
:1007900003C032F002C031F001C030F000C02FF0D1
:1007A00095908C9095928C9295948C84958683A646
:1007B0001ED0330E9EA8FED7AD6E3F6A3E6A3D6ADC
:1007C0000A0E3C6E32C043F031C042F030C041F0FE
:1007D0002FC040F0DEDC030E00242F6E000E01203F
:1007E000306E000E0220316E000E0320326E9588AE
:1007F00083A81ED0360E9EA8FED7AD6E3F6A3E6A15
:100800003D6A0A0E3C6E32C043F031C042F030C047
:1008100041F02FC040F0BDDC060E00242F6E000E0C
:100820000120306E000E0220316E000E0320326E69
:10083000958A83AA1ED0390E9EA8FED7AD6E3F6A58
:100840003E6A3D6A0A0E3C6E32C043F031C042F04F
:1008500030C041F02FC040F09CDC090E00242F6E08
:10086000000E0120306E000E0220316E000E0320BB
:10087000326E958C83AC05D0230E9EA8FED7AD6E4C
:1008800096D595908C8095928C8295948C84F292DA
:1008900030EF00F00D0A2F2F207265736574202F42
:1008A0002F0D0A000D0A205B4E5620434F44452071
:1008B00041524D454D454E54203A20256C75205DE2
:1008C00000000D0A2F2F206368616E676572206338
:1008D0006F64652064657361726D656D656E74200B
:1008E0002F2F0D0A0000F86AD09E078EEA6AE96A87
:1008F000810EAF6EA60EAC6E900EAB6E196A186AC2
:10090000176A210E166E1D6A1C6A060E1B6E800E7B
:100910001A6E216A206A1F6A1E6A256A246A236A7F
:10092000226A296A286A276A266A2D6A2C6A2B6A33
:100930002A6A2E6A326A316A306A2F6A336A346AE6
:10094000356A376A366A396A386A3B6A3A6AC180F8
:10095000C182C184C196C180C182C184C196C19C3B
:10096000C29CC29EC19EC2809698C69A949A948850
:100970009496010EC66E000EC76ED190800ED56E95
:10098000B50ECD6E000ECA6E000ECB6EB16A9D80A4
:10099000F288C00EF212376A640E366E0E0E396E91
:1009A000100E386E95908C8095928C8295948C84E4
:1009B0001E520BE11F5209E1205207E1215205E1CD
:0E09C000216A206A1F6A140E1E6EF2D7030011
:020000040030CA
:0E00000000270D0E000181000FC00FE00F4021
:00000001FF
;PIC18F452
;CRC=6893  CREATED="18-mars-20 19:27"
