:1000000015EF00F0EA6A060EE96EEF500DE0060EFD
:10001000016E006A002EFED7012EFBD77B0E006E0C
:10002000002EFED7EF2EF3D7000CF86AD09EEA6AB6
:10003000E96A810EAF6EA60EAC6E900EAB6EC180FB
:10004000C182C184C196C180C182C184C196C19C54
:10005000C29CC29EC19EC2809698C69A949A948869
:100060009496010EC66E000EC76ED190800ED56EAE
:10007000CD6A000ECA6E000ECB6E956A210E8C6E94
:10008000140E056EFA0E066EBDDF052EFBD7938E9D
:1000900081AE17D0956A110E8C6E040E056EFA0EA5
:1000A000066EB0DF052EFBD7956A090E8C6E040E26
:1000B000056EFA0E066EA6DF052EFBD7956A210E99
:1000C0008C6E140E056EFA0E066E9CDF052EFBD7A5
:1000D000938A81AA28D0956A110E8C6E040E056E43
:1000E000FA0E066E8FDF052EFBD7956A0C0E8C6E0E
:1000F000040E056EFA0E066E85DF052EFBD7956A97
:100100000A0E8C6E040E056EFA0E066E7BDF052E4F
:10011000FBD7956A210E8C6E040E056EFA0E066EE4
:0A01200071DF052EFBD7ACD70300FA
:020000040030CA
:0E00000000220D0E000181000FC00FE00F4026
:00000001FF
;PIC18F452
;CRC=4468  CREATED="14-janv.-20 17:45"
