:04000000E5EF00F038
:08000800046ED8CF05F0E0CF33
:1000100006F00001E9CF0CF0EACF07F0E1CF08F0DD
:10002000E2CF09F0D9CF0AF0DACF0BF0F3CF12F01C
:10003000F4CF13F0FACF14F000C00EF001C00FF0AF
:1000400002C010F003C011F09DA02AEF00F09EB096
:1000500057EF00F0F2A830EF00F0F2B268EF00F0D6
:10006000F0A636EF00F0F0B06EEF00F00EC000F03A
:100070000FC001F010C002F011C003F00CC0E9FF86
:1000800007C0EAFF078E08C0E1FF09C0E2FF0AC00F
:10009000D9FF0BC0DAFF12C0F3FF13C0F4FF14C086
:1000A000FAFF045006C0E0FF05C0D8FF10003C0E68
:1000B000CF6EB00ECE6E162A1650640802E1172AD3
:1000C000166A17503C0801E1182A9E9036EF00F09E
:1000D000186A176A166AF29236EF00F0195202E0B7
:1000E000000E01D0010E196E195202E09D8001D060
:1000F0009D90F09036EF00F0656C61707365642040
:1001000074696D65202575204D20257520532025A7
:100110007520430A0D000900F6CF1BF0F7CF1CF045
:10012000F5509EA8FED7AD6E1BC0F6FF1CC0F7FFB2
:100130001A2EF1D7000C1D50016A1C5C03E21CC092
:1001400000F00CD0006A080E1E6E1C3600361D50E2
:10015000005CD8B0006E01361E2EF7D7000C01509F
:100160001AC01CF0640E1D6EE6DF00C01AF00150CC
:10017000300E07E11BA20DD01BB60BD01BB8200E12
:1001800003D01B961B981B80012601509EA8FED70A
:10019000AD6E1AC01CF00A0E1D6ECDDF00C01AF045
:1001A0000150300E06E11BB609D01BA007D01BB8CA
:1001B000200E012601509EA8FED7AD6E300E1A26E5
:1001C0001A509EA8FED7AD6E000CF86AD09E078E1E
:1001D000EA6AE96A810EAF6EA60EAC6E900EAB6E47
:1001E000166A176A186AC180C182C184C196C1802B
:1001F000C182C184C196C19CC29CC29EC19EC28064
:100200009698C69A949A94889496010EC66E000E9B
:10021000C76ED190800ED56E850ECD6E000ECA6E63
:10022000000ECB6E9D80F288F086C00EF212F80EA2
:10023000F66E000EF76E0D0E1A6E6DDF18C01AF016
:100240001B0E1B6E8CDF200E9EA8FED7AD6E4D0ED2
:100250009EA8FED7AD6E200E9EA8FED7AD6E17C02D
:100260001AF01B0E1B6E7BDF200E9EA8FED7AD6E14
:10027000530E9EA8FED7AD6E200E9EA8FED7AD6E83
:1002800016C01AF01B0E1B6E6ADF110EF66E010E01
:10029000F76E040E1A6E3FDF17C01CF00A0E1D6EBB
:1002A0004ADF956A00C08CFF96908D80080E006E24
:0C02B000002EFED796908D90BAD7030068
:020000040030CA
:0E00000000220D0E000181000FC00FE00F4026
:00000001FF
;PIC18F452
;CRC=CA0D  CREATED="04-févr.-20 18:27"
